:100000000C942A001895000018950000189500001F
:10001000189500001895000018950000189500002C
:10002000189500001895000018950000189500001C
:10003000189500001895000018950000189500000C
:1000400018950000189500001895000018950000FC
:10005000189500008FE58DBFC0E4E8E34E2E84E0E4
:100060008EBFD4E0F4E05F2EEEEFF3E0A0E6B0E068
:10007000A89584B7082E877F84BF88E1992781BD22
:1000800091BD88278D933197E9F766248FEF87BB61
:100090008FEF81BB80E088BB80E082BBC29AC198B1
:1000A000C09892989198909AE8E0F0E00E947000D1
:1000B000C298C19AC0989298919A9098E3E0F0E023
:1000C0000E947000C298C198C09A929A9198909894
:1000D000EAE0F0E00E9470000C944E00F894FFCF2C
:1000E00088EE93E00CD03197D9F708953197F1F766
:1000F0000895689462F80895E89462F80895EF937B
:10010000FF93EE27E82BE92B31F0E8EEF3E031978F
:0C011000F1F70197D1F7FF91EF910895EE
:00000001FF
